:020000040800F2
:10000000C0050020ED010008D7240008FB1D0008F2
:10001000D524000885020008F32D00080000000028
:10002000000000000000000000000000BD280008E3
:100030008702000800000000D9240008BF2800083B
:10004000070200080702000807020008070200086C
:10005000070200080702000807020008070200085C
:10006000070200080702000807020008070200084C
:10007000070200080702000807020008070200083C
:10008000070200080000000007020008070200083D
:10009000070200080702000807020008070200081C
:1000A000070200080702000807020008070200080C
:1000B0006929000807020008070200080702000873
:1000C00007020008070200080702000807020008EC
:1000D00007020008070200080702000807020008DC
:1000E00007020008070200080702000807020008CC
:1000F00007020008070200080702000800000000CD
:1001000000000000070200080000000007020008CD
:100110000702000800000000752900088129000876
:10012000070200080702000807020008070200088B
:10013000070200080000000000000000070200089D
:10014000070200080702000800000000000000008D
:10015000000000000000000000000000000000009F
:10016000000000000000000000000000070200087E
:10017000070200080000000000000000000000006E
:10018000000000000702000800000000000000005E
:10019000000000000000000000000000000000005F
:1001A000000000000000000007020008070200082D
:1001B000070200080702000807020008000000000C
:1001C000000000000702000800000000000000001E
:1001D0000702000807020008DFF80CD000F040F822
:1001E00000480047FD300008C00500200648804751
:1001F00006480047FEE7FEE7FEE7FEE7FEE7FEE70C
:10020000FEE7FEE7FEE7FEE74D290008D9010008FA
:10021000D2B201E000F8012B491EFBD27047002248
:10022000F6E710B513460A4604461946FFF7F0FFF5
:10023000204610BD30B50B46014600202022012487
:1002400009E021FA02F59D4205D303FA02F5491BA4
:1002500004FA02F52844151EA2F10102F1DC30BDBA
:10026000064C074D06E0E06840F0010394E8070003
:1002700098471034AC42F6D3FFF7B2FF644600084B
:1002800084460008FEE77047002240F6B83306E0D7
:100290000021491C89B29942FBD3521C92B282427E
:1002A000F6D3704772B6FEE770B5044600F0FCF86E
:1002B0000546601C02D004484068044400F0F4F88D
:1002C000401BA042FAD370BD140000202DE9FC4F62
:1002D000DFF8A0A1002301250AF1040B03244FF04D
:1002E0000F0C0BF1040EBDE005FA03F632406FD09F
:1002F0004F68012F05D0022F03D0112F01D0122FEC
:1003000017D1D0F808905F0004FA07F829EA080925
:100310000097D1F80C8008FA07F848EA0908C0F8F5
:1003200008804768B7430E79C6F300169E403E43E7
:100330004660C6684FEA430804FA08F7BE430197CF
:100340008F6807FA08F73743C7604E68022E01D05E
:10035000122E13D1DE0800EB86060096366A5F0780
:10036000FF0E0CFA07F926EA0906D1F8109009FAEF
:1003700007F949EA0609009EC6F820900668019F21
:10038000BE430F7907F0030707FA08F73743076002
:100390004E68F60065D5384E376E47F00107376670
:1003A000366E23F0030706F001060096334E3E44F6
:1003B000B146B6689F074FEA17780CFA08F7BE43B4
:1003C000B0F1904F05D02E4FB84204D1012717E06D
:1003D00047E0002714E02B4FB84201D102270FE07D
:1003E000294FB84201D103270AE0284FB84201D172
:1003F000042705E0264FB84201D1052700E0062773
:1004000007FA08F73743C9F80870DAF8006057466A
:10041000D1F8048096435FEAC83800D516433E60A1
:10042000DBF800605F46D1F8048096435FEA8838C5
:1004300000D516433E60DEF800607746D1F80480B0
:1004400096435FEAC82800D516433E60094F0C3733
:100450003E68D1F8048096435FEA882800D51643A9
:100460003E605B1C0A6832FA03F67FF43DAFBDE8DC
:10047000FC8F000000040140001002400000014019
:100480000004004800080048000C00480010004824
:10049000001400480069084000D0012070470AB1EC
:1004A0008161704781627047014880687047000031
:1004B000140000200248816842681144816070473E
:1004C0001400002010B50024032000F073F8002071
:1004D00000F008F808B1012401E000F025F82046FA
:1004E00010BD000070B50E4E05460024706898B12E
:1004F0004FF47A71B1FBF0F00A490968B1FBF0F0F2
:1005000000F0C0FE40B9102D06D200222946501E30
:1005100000F030F8356000E00124204670BD000096
:1005200014000020200000200A4882B0016E41F033
:1005300001010166016E01F001010091816D41F040
:1005400080518165806D00F08050009002B000F015
:10055000A1B8000000100240002809DB00F01F02D3
:10056000012191404009800000F1E020C0F8001115
:1005700070470000F0B40E4B1B680C46C3F3022317
:10058000C3F10705042D00D90425191D072901D23F
:10059000002300E0DB1E012606FA05F1491E21407A
:1005A00099409E40761E16403143F0BC02F036BCA6
:1005B0000CED00E0064900F0070208684FF6FF0363
:1005C000184040EA0220034A1043086070470000C8
:1005D0000CED00E00000FA052B492C4B0A68322193
:1005E0004A432B4940B1B0F5007F086829D020F478
:1005F000C06040F480602CE00868C0F3412002280D
:1006000004D051F8800F20F4807022E0D1F88000EF
:1006100020F48070C1F88000086820F4C06040F4C5
:1006200000700860B2FBF3F0401C00E0401E4A6915
:10063000520501D50028F9D1486940050AD50320A3
:100640007047C0F34120022806D051F8800F40F4D3
:100650008070086000207047D1F8800040F48070FE
:10066000C1F88000086820F4C06040F400700860A1
:10067000B2FBF3F0401C00E0401E4A695205DBD596
:100680000028F9D1D8E700002000002040420F00E8
:10069000007000400248816841F4804181607047E9
:1006A000007000402DE9F8430446006800269D4D87
:1006B00000035ED5A86D0027C00008D4A86D40F0E7
:1006C0008050A865A86D012700F080500090DFF8E9
:1006D0005892D9F8001041F48071C9F80010FFF762
:1006E000E3FE804606E000BFFFF7DEFEA0EB080059
:1006F00002282BD8D9F80000C005F5D5D5F8900010
:1007000010F4407014D0216C814211D0D5F89000C3
:10071000D5F8901020F4407041F48031C5F8901065
:10072000D5F8901021F48031C5F89010C5F89000EC
:10073000C00711D0FFF7B8FE804641F2883907E0C4
:10074000FFF7B2FEA0EB0801494501D903260BE0F3
:10075000D5F890008007F3D5D5F89000216C20F4EF
:1007600040700843C5F890001FB1A86D20F080507C
:10077000A8652078C00707D0D5F88800616820F008
:1007800003000843C5F888002078800707D5D5F80E
:100790008800A16820F00C000843C5F88800207884
:1007A000400707D5D5F88800E16820F030000843FD
:1007B000C5F888002078000707D5D5F8880021699A
:1007C00020F0C0000843C5F888002078800607D5CF
:1007D000D5F88800616920F440600843C5F88800B6
:1007E0002078400607D5D5F88800A16920F440504C
:1007F0000843C5F888002078000607D5D5F888009A
:10080000E16920F440400843C5F888002088C0050D
:1008100007D5D5F88800216A20F440300843C5F890
:1008200088002088800507D5D5F88800616A20F403
:1008300040200843C5F88800208840050FD5D5F82A
:100840008800A16A20F440100843C5F88800A06A17
:10085000B0F5801F03D1E86840F48010E86020887C
:1008600000050FD5D5F88800E16A20F44000084360
:10087000C5F88800E06AB0F5800F03D1E86840F45D
:100880008010E8602088C0040FD5D5F88800216B5F
:1008900020F040700843C5F88800206BB0F1807FDD
:1008A00003D1E86840F48010E86020884FF00061D0
:1008B00080040ED5D5F88800626B20F040601043AC
:1008C000C5F88800606B884203D1E86840F4801066
:1008D000E860208840040ED5D5F88800A26B20F08F
:1008E00040601043C5F88800A06B884203D1E868D7
:1008F00040F48010E860208800040FD5D5F8880007
:10090000E16B20F040500843C5F88800E06BB0F17F
:10091000805F03D1E86840F48030E8603046BDE88D
:10092000F883000000100240007000402DE9F047FD
:100930000E4605004FF0000725D0DFF8AC81D8F84F
:10094000000000F00F00B0420CD2D8F8001021F0E7
:100950000F013143C8F80010D8F8000000F00F0074
:10096000B04210D12968614CC80741F2883A5AD088
:100970006868DFF87C91032808D0022820682DD011
:10098000400500282CDB0120BDE8F08720688001AD
:10099000F9D5E06800F00302E068C0F30310401CE2
:1009A000032A19D0534A00BFB2FBF0F0E268C2F349
:1009B00006225043E268C2F34162521C5200B0FB6F
:1009C000F2F0484517D9A06810F0F00F0CD0880756
:1009D00011D5A86840B10EE0474AE5E78003D0E7AB
:1009E00000F092F8484506D9A06820F0F00040F0E9
:1009F0008000A0608027A068696820F00300084399
:100A0000A060FFF751FD814606E000BFFFF74CFDF7
:100A1000A0EB090151453AD8A068696800F00C00C4
:100A2000B0EB810FF2D12868810714D5400703D5B8
:100A3000A06840F4E060A0602878000705D5A068B1
:100A400020F4605040F4E060A060A068A96820F045
:100A5000F000084304E0802F03D1A06820F0F000EC
:100A6000A060D8F80010404601F00F01B14216D93D
:100A7000016821F00F0131430160FFF715FD0746C2
:100A800007E000BFFFF710FDC11B514501D903204E
:100A90007AE7D8F8000000F00F00B042F2D12878D1
:100AA000400705D5A068E96820F4E0600843A0602D
:100AB0002878000706D5A068296920F4605040EA2C
:100AC000C100A06000F020F8A1680C4AC1F3031136
:100AD000515C01F01F01C8400949086009480068DD
:100AE000BDE8F047FFF7FEBC0020024000100240C6
:100AF00000B4C4040024F40000127A005446000834
:100B00002000002014000020184910B58868C0F3A8
:100B100081021748012A0BD08A684310C2F3810270
:100B2000022A06D08A68C2F38102032A03D0002079
:100B300010BD184610BDCA6802F00304CA68C2F3AB
:100B40000312521C032C02D0B0FBF2F001E0B3FB05
:100B5000F2F0CA68C968C2F306225043C1F341618A
:100B6000491C4900B0FBF1F010BD0000001002402C
:100B70000024F4002DE9F84304007AD02078FA4DDF
:100B8000C00747D0A868E96800F00C0001F0030135
:100B90000C2802D0082817D001E0032914D060687F
:100BA000B0F5803F17D0B0F5A02F286817D020F4FB
:100BB00080302860286820F4802028606068E0B1D8
:100BC000FFF772FC064614E02868800322D56068AF
:100BD0000028D2D01EE0286840F48030EDE740F4D1
:100BE00080202860F7E700BFFFF75EFC801B6428C9
:100BF00070D828688003F7D50CE0FFF755FC06464F
:100C000005E000BFFFF750FC801B6428F0D828687F
:100C10008003F7D4207880074CD5A868E96800F0F5
:100C20000C0001F003010C2802D004280DD001E0D3
:100C300002290AD0E068002828682BD040F4807090
:100C40002860FFF731FC064619E02868400502D508
:100C5000E068002891D06868217C20F0FE4040EADE
:100C600001606860C1480068FFF73CFC002800D1C3
:100C700020E076E1FFF718FC801B0228B8D828682E
:100C80004005F7D56868217C20F0FE4040EA01600D
:100C900068600FE020F480702860FFF705FC0646CE
:100CA00005E000BFFFF700FC801B0228A0D82868E1
:100CB0004005F7D42078000729D560690028D5F8C9
:100CC000940013D040F00100C5F89400FFF7ECFB4E
:100CD000064606E090E000BFFFF7E6FB801B022817
:100CE00086D8D5F894008007F6D510E020F00100F2
:100CF000C5F89400FFF7D8FB064604E0FFF7D4FBE5
:100D0000801B022878D8D5F894008007F6D4207884
:100D1000400761D5A86D0026C00008D4A86D40F03A
:100D20008050A865A86D012600F080500090904882
:100D30000168C90511D40168804641F480710160E1
:100D4000FFF7B2FB074604E0FFF7AEFBC01B02282B
:100D500052D8D8F80000C005F6D5A068012815D0F3
:100D60000528D5F8900016D020F00100C5F89000B5
:100D7000D5F8900020F00400C5F89000A06841F27A
:100D80008838B8B1FFF790FB07460EE0D5F8900021
:100D900040F00100F0E740F00400C5F89000F5E7EE
:100DA000FFF782FBC11B414526D8D5F8900080078C
:100DB000F6D50CE0FFF778FB074604E0FFF774FB7D
:100DC000C11B414518D8D5F890008007F6D41EB154
:100DD000A86D20F08050A8652078800629D5A069EC
:100DE0000028D5F8980013D040F00100C5F898000D
:100DF000FFF75AFB064606E077E000BFFFF754FB1B
:100E0000801B022877D8D5F898008007F6D510E027
:100E100020F00100C5F89800FFF746FB064604E005
:100E2000FFF742FB801B022865D8D5F898008007A1
:100E3000F6D4E069F0B3A968C1F38101032961D058
:100E40000228286820F0807028600BD0E86820F025
:100E50000300E860E86847490840E860FFF724FBC2
:100E600004464BE0FFF720FB064604E0FFF71CFBBF
:100E7000801B02283FD828688001F7D4F4E90801D4
:100E80006FF00F0202EB01110843218A5204490856
:100E900002EB4151A26841EA02210843217D4FF053
:100EA0007E42490802EB41610843217B40EAC16070
:100EB000E96800E062E0304A11400843E8602868D1
:100EC00040F080702860E86840F08070E860FFF7CC
:100ED000EBFA044605E000BFFFF7E6FA001B022824
:100EE00009D828688001F7D548E004E0FFF7DCFA6C
:100EF000001B022802D90320BDE8F883286880017E
:100F0000F4D43BE00128F7D0E868226A00F003013E
:100F1000914226D1616A00F0F00209011039914234
:100F20001FD1A26A00F4FE41B1EB022F19D194F84F
:100F30002C2000F07841B1EBC26F12D1218E00F469
:100F4000C00249084905A1F50011914209D194F860
:100F5000341000F0C06049084906A1F100718142D7
:100F60000CD00120C8E7000000100240140000204F
:100F700000700040FFFFEEFE0C809F010020BBE7E9
:100F80000F4810B50B4601680E480140080CD87098
:100F9000C1F304245C7001F03F049C70C1F3423142
:100FA000197052B901F023FCD870587801F01FFC79
:100FB0005870987801F01BFC9870002010BD00005C
:100FC000042800403FFFFF00144810B500680B469E
:100FD0004860124808300068C0F30E0088600F486F
:100FE000083801680E480140C1F305401870C1F38C
:100FF00006245C7001F07F049C70890DD97052B991
:1010000001F0F5FB1870587801F0F1FB58709878F2
:1010100001F0EDFB9870002010BD00000828004092
:101020007F7F7F0070B504004FF001003ED094F840
:10103000250028B9002084F82400204600F03CF860
:10104000022084F825001A4ECA20306053203060F8
:10105000204601F0E1FB10BB154D0C3D28681549F9
:101060000840286028686168A26908432169114323
:10107000084328602189E06840EA01400C4914399E
:101080000860204601F0EEFB48B9D4E9072111437E
:1010900062692B6823F060431A4311432960FF21E2
:1010A0003160002802D1012184F8251070BD0000B4
:1010B00024280040BFFF8FFB00680549884205D106
:1010C000044850F8901F41F400410160704700004F
:1010D00000280040001002402DE9F041044690F83D
:1010E00024000B4601281AD0012684F8246002202F
:1010F00084F82500B2B19878D97840EA014558784B
:101100001978000240EA413005431B4FCA2038607D
:1011100053203860204601F07FFBD8B122E0022046
:10112000BDE8F0815878C10603D500F0EF000A3021
:101130005870D87801F064FB0504587801F060FB22
:1011400045EA0025987801F05BFB0543187845EAED
:101150004035DAE709480540074820380560204651
:1011600001F080FBFF21396008B984F82560002177
:1011700084F82410D4E70000242800403FFFFF003B
:101180002DE9F047054690F8240017460C46012843
:1011900014D04FF0010985F82490022085F825002D
:1011A000DFF8A480CA21C8F800105321C8F8001045
:1011B000284601F031FB002618B127E00220BDE8E7
:1011C000F087214B0C3B18684FEA40601FB30028A2
:1011D00000DBE670A0782178E27840EA014061788F
:1011E000090241EA82510843184908401649243946
:1011F0000860186820F480201860D4E903010843CF
:10120000196808431860284601F02CFBFF22C8F833
:101210000020A0B115E0002800DBE670207801F086
:10122000EFFA0704607801F0EBFA47EA0027A078AC
:1012300001F0E6FA0743E07847EA8050D4E785F802
:10124000259085F82460BAE7242800407F7F7F003E
:1012500070B50B4D286860F0A0002860FFF724F9F6
:1012600004464FF47A7606E0FFF71EF9001BB04201
:1012700001D9032070BD28688006F5D5002070BD17
:101280000C28004010B5401EB0F1807F01D3012032
:1012900010BD4FF0E02460610F21601701F0BEFD2A
:1012A0000020A06107202061002010BD704770471A
:1012B0007047704770477047F0B590F83C20012A9E
:1012C0003AD0012580F83C50022280F83D20036886
:1012D0005A689C68194E1A4FB34201D0BB4204D1E0
:1012E00022F4700C4A6842EA0C02DFF858C002EAA5
:1012F0000C02D1F800C04CEA020CC3F804C002682A
:10130000B2420DD0B2F1804F0AD00F4B9A4207D0B3
:101310000E4B9A4204D0BA4202D00D4B9A4204D1ED
:10132000896824F080031943916080F83D500021C2
:1013300080F83C100846F0BD0220F0BD002C0140B2
:10134000003401408FFFFFFD000400400008004012
:1013500000400140704710B5040003D094F83D00F0
:1013600010B107E0012010BD002084F83C002046A9
:1013700000F022F8022084F83D00211D206801F0D1
:1013800005FB012084F8480084F83E0084F83F0003
:1013900084F8400084F8410084F8420084F8430057
:1013A00084F8440084F8450084F8460084F8470037
:1013B00084F83D00002010BD08B501682248B1F155
:1013C000804F0BD0214A914217D1816D41F002012B
:1013D0008165806D00F00200009008BD816D41F0D4
:1013E00001018165806D002200F001000090032161
:1013F0001C20FFF7BFF81C2022E0154A91420ED1B5
:10140000816D41F010018165806D002200F01000B7
:10141000009004213620FFF7ADF8362010E00D4A89
:101420009142DAD1816D41F020018165806D002209
:1014300000F02000009005213720FFF79BF83720AF
:10144000BDE80840FFF788B80010024000040040E3
:10145000001000400014004090F83D10012901D018
:1014600001207047022180F83D1000680F49884232
:101470000ED0B0F1804F0BD00D49884208D00D49F5
:10148000884205D00C49884202D00C49884207D1D5
:1014900081680B4A1140062906D0B1F5803F03D080
:1014A000016841F00101016000207047002C0140FB
:1014B00000040040000800400034014000400140AA
:1014C0000700010090F83D10012901D0012070476C
:1014D000022180F83D100168CA6842F00102CA602A
:1014E0000068104988420ED0B0F1804F0BD00E49F1
:1014F000884208D00D49884205D00D49884202D063
:101500000C49884207D181680B4A1140062906D050
:10151000B1F5803F03D0016841F001010160002076
:1015200070470000002C014000040040000800400B
:101530000034014000400140070001000168CA6812
:1015400022F00102CA6001680A6A41F211131A42CC
:1015500007D10A6A9B001A4203D10A6822F00102ED
:101560000A60012180F83D100020704770B50446E4
:1015700090F83C00012814D0012584F83C5002204A
:1015800084F83D0022689068344B184020F47F4076
:1015900090600868702827D010DC10F00F0F03D07F
:1015A0004AE04FF0020070BD4FEA2012072A43D2F2
:1015B000DFE802F05050505048313900284BC21A31
:1015C000984247D009DCB0F5805F35D0B0F5005FB8
:1015D00015D0B0F1101F2FD13CE0102A3AD0202AAC
:1015E00038D0502A28D135E0CB68D1E901212068D4
:1015F00001F031FA2068816841F0770109E0CB6899
:10160000D1E90121206801F026FA2068816841F4BF
:101610008041816010E0CA684968206801F0C6FB1B
:101620005021206806E0CA684968206801F0CFFBB5
:101630006021206801F01AFA84F83D50002084F8F7
:101640003C0070BDCA684968206801F0AFFB4021CA
:101650002068EFE7226801461046EBE788FFCEFFDF
:1016600020001000704770B50446006801694FF013
:101670000005C943890715D4C168C943890711D436
:10168000E91E0161012020772068806980072046DB
:1016900002D0FFF7E7FF04E000F00CF9204600F06D
:1016A000CBF9257720680169C943490717D4C16878
:1016B000C943490713D46FF0040101610220207768
:1016C0002068806910F4407F204602D0FFF7CAFFEF
:1016D00004E000F0EFF8204600F0AEF9257720682E
:1016E0000169C943090716D4C168C943090712D45F
:1016F0006FF008010161042020772068C06980072D
:10170000204602D0FFF7AEFF04E000F0D3F82046F9
:1017100000F092F9257720680169C943C90617D4FA
:10172000C168C943C90613D46FF0100101610820D4
:1017300020772068C06910F4407F204602D0FFF770
:1017400091FF04E000F0B6F8204600F075F9257727
:1017500020680169C943C90708D1C168C943C907DD
:1017600004D1891E0161204600F03CFA206801691D
:10177000C943090609D4C168C943090605D46FF0F5
:10178000800101612046FFF792FD20680169C9438D
:10179000C90509D4C168C943090605D46FF480712D
:1017A00001612046FFF782FD20680169C9434906AF
:1017B00009D4C168C943490605D46FF040010161ED
:1017C000204600F019FB20680169C943890609D445
:1017D000C168C943890605D46FF020010161204624
:1017E000FFF766FD20680169C943C90209D4C168D1
:1017F000C943C90205D46FF4801101612046FFF787
:1018000059FD20680169C943890209D4C168C943E7
:10181000890205D46FF4001101612046FFF749FDEC
:1018200020680169C943490209D4C168C943490212
:1018300005D46FF4800101612046FFF73CFD20686C
:101840000169C94309020BD4C168C943090207D41D
:101850006FF4000101612046BDE87040FFF77ABDDA
:1018600070BD000010B586B0044614216846FEF72E
:10187000D6FC0E492068884215D10D48C16C41F054
:101880000101C164C06C002100F001000590C0207E
:1018900000900220CDE90101CDE9031069464FF027
:1018A0009040FEF713FD06B010BD0000000400409C
:1018B00000100240704770B5044690F83C000D4699
:1018C00001280BD0012084F83C000C2A45D007DC0D
:1018D0005AB1042A1BD0082A78D12CE0022070BD0E
:1018E000102A4ED0142A71D15DE0206801F0C8F8AA
:1018F0002068816941F0080181612068816921F0D7
:1019000004018161206881692A69114311E020681E
:1019100001F004F92068816941F400618161206867
:10192000816921F480618161206881692A6941EAC5
:10193000022181614AE0206801F038F92068C1691C
:1019400041F00801C1612068C16921F00401C16151
:101950002068C1692A69114311E0206801F06EF91D
:101960002068C16941F40061C1612068C16921F446
:101970008061C1612068C1692A6941EA0221C161AF
:1019800024E0206801F0A2F92068016D41F008010F
:1019900001652068016D21F0040101652068016D79
:1019A0002A69114311E0206801F0C8F92068016D2F
:1019B00041F4006101652068016D21F480610165D9
:1019C0002068016D2A6941EA02210165002084F83E
:1019D0003C0070BD10B5040003D094F83D0010B178
:1019E00007E0012010BD002084F83C00204600F0F4
:1019F00022F8022084F83D00211D206800F0C6FF77
:101A0000012084F8480084F83E0084F83F0084F800
:101A1000400084F8410084F8420084F8430084F8D0
:101A2000440084F8450084F8460084F8470084F8B0
:101A30003D00002010BD70477047000030B50446DF
:101A4000022269B1042912D0082917D00C291CD010
:101A5000102921D094F84300012824D0012030BD62
:101A600094F83E000128F9D184F83E201DE094F856
:101A70003F000128F2D184F83F2016E094F840009E
:101A80000128EBD184F840200FE094F841000128B0
:101A9000E4D184F8412008E094F842000128DDD127
:101AA00084F8422001E084F843200122206800F0FD
:101AB000C5FF194B20681949194A984209D0884234
:101AC00007D0904205D0174DA84202D0164DA8422B
:101AD00003D1456C45F400454564206898420CD01C
:101AE000B0F1804F09D0114B984206D0104B98426C
:101AF00003D0884201D0904207D181680D4A11403D
:101B0000062906D0B1F5803F03D0016841F00101FC
:101B10000160002030BD0000002C01400034014075
:101B200000400140004401400048014000040040E2
:101B3000000800400700010030B504460D4600686B
:101B4000002200F07BFF224B41F2111120688A0035
:101B500098420BD01F4B984208D01F4B984205D09B
:101B60001E4B984202D01E4B984209D1036A0B4289
:101B700006D1036A134203D1436C23F40043436448
:101B80002068036A0B4206D1016A114203D1016841
:101B900021F00101016001205DB1042D0CD0082D60
:101BA0000DD00C2D0ED0102D0FD084F84300002046
:101BB00030BD84F83E00FAE784F83F00F7E784F888
:101BC0004000F4E784F84100F1E784F84200EEE7D2
:101BD000002C01400034014000400140004401401D
:101BE000004801402DE9FF5F07460068644CB0F1F2
:101BF000804F3DD06349644E4FF480784FF40079B4
:101C00004FF4806A4FF4006B04F10905884261D1FA
:101C100001225E495E48FFF7D7F90122611D5C4849
:101C2000FFF7AEF95948817801F00F020B094178AE
:101C3000CDE9023201F00F0C0909CDE9001C007852
:101C400054A100F00F03020950482A3001F0D2F8E5
:101C50004E49D8202A3100F053F9607878B14B48CA
:101C6000227853A1143001F0C5F84849143107E037
:101C70002079002801D101202071BDE8FF9F52A1E9
:101C8000482000F03DF94FF47F403060687828B17B
:101C90003D48002241461838FEF701FCA87828B1DB
:101CA0003948002249461838FEF7F9FBE87828B190
:101CB0003548002251461838FEF7F1FB287928B143
:101CC0003148002259461838FEF7E9FB6078A8B180
:101CD00000206070424938688842CED1414F0122CD
:101CE00004213846FEF7DBFBA078052808D006283B
:101CF00008D0072839D0082806D138E00120E8E7C5
:101D0000394800E039483060687828B11E48002220
:101D100041461838FEF7C3FBA87828B11A480022BC
:101D200049461838FEF7BBFBE87828B11648002270
:101D300051461838FEF7B3FB287928B11248002223
:101D400059461838FEF7ABFB002204213846FEF74F
:101D5000A6FBE0780028A0780BD0401EC0B2A0708F
:101D600004288AD10820A07087E72148CBE72148C2
:101D7000C9E7401CC0B2A0700928F5D10520F2E7E0
:101D8000060000200014004018080048240000202D
:101D900064000020202020202020257525753A256C
:101DA0007525753A257525752020202020200000F6
:101DB00020202020202020202020256420202020DA
:101DC0002020202020000000202020202020202073
:101DD0002020202020202020202020200000000083
:101DE00000100040000C004800EF001000DF002051
:101DF00000BF0040007F00807047FEE700B585B05F
:101E000014216846FEF70BFA4FF6FF700090002091
:101E10000321CDE90201019069460248FEF756FA16
:101E200005B000BD0008004800B585B01421684623
:101E3000FEF7F5F94FF6FF700090012001900320A6
:101E400003900020029069460248FEF73FFA05B071
:101E500000BD00000008004830B587B01421684676
:101E6000FEF7DDF91E48C16C41F00401C164C16C8C
:101E700001F004010591C16C41F00101C164C16C24
:101E800001F001010591C16C41F00201C164C06C17
:101E9000012500F0020005904FF44870CDE90005DF
:101EA00000240394694602940E48FEF70FFA2802B4
:101EB00003940090CDE901544FF0904469462046C8
:101EC000FEF704FAFFF7B0FFA06940F48070A0614C
:101ED00004481830016841F40871016007B030BD52
:101EE0000010024000040048203AD2B2034B02EB3B
:101EF000420203EB021200F019B80000843400081B
:101F0000F0B50E460746002540F23F1407E0214693
:101F10003846FFF7E9FF103C6D1CA4B2761C3278FE
:101F2000002A01D0142DF2D3F0BD00002DE9F047B6
:101F300091468A460026044600F086F8DFF8408085
:101F4000012700BF00F0C0F85FF0000539F8160067
:101F500007FA05F10842404601D1408800E00088B8
:101F600000F086F86D1C102DF0D3641CE4B25146CD
:101F7000204600F069F8761C182EE3D3BDE8F08700
:101F80000000002010B5FFF767FF002000F014F8F4
:101F9000084CA080A088A0F50241303906D000F09E
:101FA00025FB002000F008F8A08010BD00F095FA95
:101FB000F7E700000000002070B51D490A6842F4F0
:101FC00000720A600A6842F480720A60184C103C81
:101FD000226842F020022260164A1060086840F031
:101FE0002000086000BF00BF00BF206840F0200054
:101FF0002060206840F480702060FFF7FFFE4FF003
:102000009041886A40F48070886200BF00BF00BFC2
:102010000848001F006885B2886940F480708861B4
:10202000FFF702FF206840F400702060284670BD72
:10203000280400481408004801B5BDF80000014913
:10204000488008BD0000002010B50C460146202045
:1020500000F068F82146BDE81040212000F062B889
:1020600001B5BDF800000149088008BD000000204E
:10207000134A116841F400711160114910390B685D
:1020800043F480730B600B6843F020030B600D4B2F
:102090001860106840F02000106000BF00BF00BF53
:1020A000086840F020000860086840F4807008600C
:1020B00000BF00BF00BF086840F4007008607047B0
:1020C00028040048140800481449086840F40070C7
:1020D0000860086840F48070086010481038026892
:1020E00042F0200202600E4B22221A600A6842F07F
:1020F00020020A6000BF00BF00BF016841F020015C
:102100000160016841F48071016000BF00BF00BF41
:10211000016841F400710160704700002804004824
:1021200014080048184B10B51A6842F400721A607F
:102130001A6842F480721A60134A103A146844F024
:1021400020041460114C2060186840F020001860D2
:1021500000BF00BF00BF106840F020001060106892
:1021600040F4807010602160186840F02000186012
:1021700000BF00BF00BF106840F020001060106872
:1021800040F48070106010BD280400481408004816
:102190002DE9F04F87B014216846FEF740F83C481F
:1021A000C16C41F00401C164C16C01F004010591EE
:1021B000C16C41F00101C164C16C01F001010591E4
:1021C000C16C41F00201C164C16C01F002010591D2
:1021D000C16C41F00801C164C06CDFF8B88000F048
:1021E00008004FF6FF740590002221464046FEF796
:1021F00056F94FF498764FF0904900223146484600
:10220000FEF74DF9DFF890A0002204215046FEF7BA
:1022100046F9DFF888B04FF448770022394658462F
:10222000FEF73DF90125CDE90045002402946946F9
:1022300040460394FEF74AF8CDE900546946484603
:102240000294FEF743F80096CDE9015469464846EA
:102250000394FEF73BF80720CDE900046946584691
:102260000294FEF733F804200090CDE9015469464A
:1022700050460394FEF72AF80097CDE901546946C9
:1022800058460394FEF722F807B0BDE8F08F00002F
:102290000010024000080048000C004800040048FC
:1022A00010B586B014216846FDF7B9FF1F48002419
:1022B0001D490594C0E900147F218160FF21C0E918
:1022C00003144FF080414461C0E906410462FEF707
:1022D000A9FE08B1FDF7E6FF12208DF8000050209E
:1022E0008DF8010055208DF802000194039401221D
:1022F00069460E480494FEF743FF08B1FDF7D2FF8C
:1023000001208DF814008DF815008DF81600024696
:102310008DF8174005A90548FEF7DEFE002801D01C
:10232000FDF7C0FF06B010BD00280040640000208B
:1023300010B588B0002417480094019402940394C7
:10234000049405944FF080410694016041F63F717A
:10235000C0E9011442F20F71C0E903148461FEF771
:10236000FAFF08B1FDF79EFF4FF4805000906946D8
:102370000848FFF7FBF808B1FDF794FF049404A99F
:1023800004480694FEF798FF002801D0FDF78AFF65
:1023900008B010BD8C00002010B58EB0002407944A
:1023A000089409940A940B940C941C2168460D948B
:1023B000FDF735FF22482149016040F21F31C0E995
:1023C00001146321C0E903148461FEF7C4FF08B15E
:1023D000FDF768FF4FF48050079007A91848FFF7F2
:1023E000C5F808B1FDF75EFF1548FFF7F3FA08B12D
:1023F000FDF758FF0B940BA911480D94FEF75CFFF5
:1024000008B1FDF74FFF6020CDE9000402940022DF
:1024100069460B480494FFF74EFA08B1FDF742FFF6
:102420000422694606480194FFF745FA08B1FDF712
:1024300039FF0348FFF716FA0EB010BD0004004044
:10244000D80000203EB500240F48009401940D49A7
:102450000294016041F63F71C0E9011440F6C311D6
:102460008461C160FEF777FF08B1FDF71BFF0094A0
:10247000694605480294FEF71FFF002801D0FDF7CA
:1024800011FF3EBD00100040240100203EB5002495
:102490000F48009401940D490294016041F63F7188
:1024A000C0E9011440F6C3118461C160FEF753FF17
:1024B00008B1FDF7F7FE0094694605480294FEF75F
:1024C000FBFE002801D0FDF7EDFE3EBD00140040EC
:1024D00070010020FEE7FEE7704730B501210020C3
:1024E000FFF720FE4FF47A70FDF7CEFE00210120A9
:1024F000FFF718FE41F290711020FFF713FE4FF422
:102500001C516020FFF70EFE01216120FFF70AFE3B
:1025100002214620FFF706FE48F210011320FFF7C4
:1025200001FE48F2FE011220FFF7FCFD4FF4A0610E
:102530000220FFF7F7FD41F230010320FFF7F2FD23
:1025400040F2033421463020FFF7ECFD21463120D4
:10255000FFF7E8FD21463220FFF7E4FDE51E29469E
:102560003320FFF7DFFD03213420FFF7DBFD214699
:102570003520FFF7D7FD14213620FFF7D3FD214684
:102580003720FFF7CFFD21463820FFF7CBFD21464E
:102590003920FFF7C7FD29463A20FFF7C3FD032185
:1025A0003B20FFF7BFFD21463C20FFF7BBFD4FF46A
:1025B000A0513D20FFF7B6FD4FF400719220FFF7C8
:1025C000B1FD21469320FFF7ADFD40F60D019020AF
:1025D000FFF7A8FD41F218010320FFF7A3FDBDE8B6
:1025E000304040F273110720FFF79CBD10B543F255
:1025F0000801E320FFF796FD1221E720FFF792FD87
:1026000041F23121EF20FFF78DFD00210120FFF77E
:1026100089FD4FF4E0610220FFF784FD41F23001B3
:102620000320FFF77FFD00210420FFF77BFD40F230
:1026300007210820FFF776FD00210920FFF772FD32
:1026400000210A20FFF76EFD00210C20FFF76AFD34
:1026500000210D20FFF766FD00210F20FFF762FD2E
:1026600000211020FFF75EFD07211120FFF75AFD22
:1026700000211220FFF756FD00211320FFF752FD25
:10268000C820FDF711FE41F290611020FFF74AFDCE
:1026900040F227211120FFF745FD3220FDF704FE0F
:1026A0001D211220FFF73EFD3220FDF7FDFD4FF406
:1026B00000611320FFF736FD14212920FFF732FDBA
:1026C0000B212B20FFF72EFD3220FDF7EDFD002121
:1026D0002020FFF727FD00212120FFF723FD072100
:1026E0003020FFF71FFD40F207713120FFF71AFD80
:1026F00006213220FFF716FD40F204713520FFF766
:1027000011FD41F604713620FFF70CFD042137203E
:10271000FFF708FD00213820FFF704FD40F20671A5
:102720003920FFF7FFFC40F201713C20FFF7FAFC73
:102730000F213D20FFF7F6FC00215020FFF7F2FCAF
:10274000EF215120FFF7EEFC00215220FFF7EAFCB9
:1027500040F23F115320FFF7E5FC4FF41C5160207D
:10276000FFF7E0FC01216120FFF7DCFC00216A207B
:10277000FFF7D8FC00218020FFF7D4FC0021812046
:10278000FFF7D0FC00218220FFF7CCFC0021832042
:10279000FFF7C8FC00218420FFF7C4FC002185203E
:1027A000FFF7C0FC10219020FFF7BCFC0021922015
:1027B000FFF7B8FC03219320FFF7B4FC4FF48871B6
:1027C0009520FFF7AFFC00219720FFF7ABFC00211D
:1027D0009820FFF7A7FC41F218010320FFF7A2FCA5
:1027E000BDE8104040F273110720FFF79BBC0109C0
:1027F00001EB810100F00F0000EB4100C0B2704717
:102800000022014602E00A39C9B2521C0A29FAD252
:10281000100741EA106070472DE9F047104C8146DF
:1028200000252068400618D4206840F08000206011
:10283000FDF73AFE06464FF47A78032708E000BF1A
:10284000FDF732FE801B404502D9032589F825702B
:102850002068400601D4032DF2D12846BDE8F08758
:102860000C2800402DE9F041064613480025016878
:1028700021F080010160104C0C3420684FF00307F8
:10288000800607D43046FEF7E3FC90B186F8257049
:1028900003250EE0206820F0200020603046FEF77F
:1028A000D7FC10B186F825700325206840F0200081
:1028B00020602846BDE8F0810C2800407047FDF7F5
:1028C000F9BD10B5A4B038216846FDF7A8FC142165
:1028D0001FA8FDF7A4FC44210EA8FDF7A0FC4FF4AF
:1028E00000742046FDF778FE61100A2003910090E5
:1028F00040210122CDE904120221CDE908120791FD
:10290000CDE90A010C9168460D91FEF733F908B143
:1029100072B6FEE70F2000211F900320CDE92001B1
:102920002291239102211FA8FEF700F808B172B688
:10293000FEE74FF400200E901E940EA8FDF7B2FEA5
:10294000002801D072B6FEE724B010BD054801682A
:1029500041F47001016003494FF000608039086064
:102960007047000088ED00E00148FEF77CBE0000E3
:102970008C0000200148FEF776BE000024010020F4
:102980000148FEF770BE0000700100202DE9F04301
:102990000268234B234D244E244C4FF0804998422B
:1029A00007D0484505D0A84203D0B04201D0A0428C
:1029B00003D122F070074A683A431D4FDFF874C014
:1029C000DFF8748098420DD048450BD0A84209D05A
:1029D000B04207D0A04205D0B84203D0604501D034
:1029E000404503D122F44075CA682A434D6922F05C
:1029F00080022A4302608A68C2620A688262984240
:102A000007D0A04205D0B84203D0604501D0404570
:102A100001D10969016301214161BDE8F083000032
:102A2000002C014000040040000800400034014038
:102A300000400140004401400048014010B501F051
:102A40001F030121046A99408C430462016A9A4081
:102A50001143016210BD10B5846842EA032224F4D8
:102A60007F440A432243826010BD00008268034B0A
:102A70001A400A4342F00701816070478FFFCFFF81
:102A80002DE9F043026A22F001020262056A4368FE
:102A900082691C4C25F0020522400C6822F00302DA
:102AA00014438A68194E2A43174D194FDFF864C042
:102AB000DFF86490A84207D0B04205D0B84203D0F6
:102AC000604501D0484506D122F00808CA6842EAAC
:102AD000080222F00402A84207D0B04205D0B84252
:102AE00003D0604501D0484505D14D6923F44073BA
:102AF0001D438B692B4343608461496841630262D3
:102B0000BDE8F0838FFFFEFF002C01400034014040
:102B1000004001400044014000480140F0B5026A15
:102B200022F010020262056A42688369194C1B4E4A
:102B300023400C6823F4407343EA042425F0200367
:102B40008D6843EA0513144DA84201D0B04206D166
:102B5000CF6823F0800343EA071323F04003A84221
:102B60000AD0B04208D00E4DA84205D00D4DA84263
:102B700002D00D4DA84207D14D6922F4406242EACD
:102B800085028D6942EA85024260846149688163F9
:102B90000362F0BDFF8FFFFE002C014000340140B6
:102BA000004001400044014000480140F0B5026A85
:102BB00022F480720262056A4368C269194C1B4E96
:102BC00022400C6822F00302144325F400728D6841
:102BD00042EA0522144DA84201D0B04206D1CF6886
:102BE00022F4006242EA072222F48062A8420AD05C
:102BF000B04208D00E4DA84205D00E4DA84202D0DA
:102C00000D4DA84207D14D6923F4405343EA051303
:102C10008D6943EA05134360C4614968C163026278
:102C2000F0BD00008FFFFEFF002C0140003401408A
:102C3000004001400044014000480140F0B5026AF4
:102C400022F480520262056A4268C369194C1B4E25
:102C500023400C6823F4407343EA042425F4005312
:102C60008D6843EA0533144DA84201D0B04206D125
:102C7000CF6823F4004343EA073323F48043A84298
:102C80000AD0B04208D00E4DA84205D00D4DA84242
:102C900002D00D4DA84207D14D6922F4404242EACC
:102CA00085128D6942EA85124260C46149680164F7
:102CB0000362F0BDFF8FFFFE002C01400034014095
:102CC00000400140004401400048014030B5026A24
:102CD00022F480320262046A4268036D114D2B4077
:102CE0000D681D4324F400330C8943EA04430E4C61
:102CF000A0420BD00D4CA04208D00D4CA04205D0F4
:102D00000C4CA04202D00C4CA04204D14C6922F4DD
:102D1000803242EA042242600565496881640362A8
:102D200030BD00008FFFFEFF002C01400034014049
:102D300000400140004401400048014030B5026AB3
:102D400022F480120262046A4268036D114D24F479
:102D500000142B400D6843EA05230D8944EA05540D
:102D60000D4DA8420BD00D4DA84208D00C4DA842E5
:102D700005D00C4DA84202D00B4DA84204D14D699C
:102D800022F4802242EA8522426003654968C164D8
:102D9000046230BDFF8FFFFE002C01400034014073
:102DA00000400140004401400048014010B5036A62
:102DB000046A24F001040462846924F0F00444EA03
:102DC000021423F00A020A438461026210BD10B5A6
:102DD000036A23F0100303628369046A23F47043D7
:102DE00043EA023224F0A00343EA01118261016246
:102DF00010BDFEE70FB4084B10B504A902AA039852
:102E000000F02CF8044602A9002000F0D1F820467A
:102E100010BC5DF814FB0000B12F00080907090E73
:102E2000002804DB00F1E02080F80014704700F077
:102E30000F0000F1E02080F8141D704702E008C880
:102E4000121F08C1002AFAD170477047002001E024
:102E500001C1121F002AFBD1704700002DE9FF4F6E
:102E600089B09B460446002506E025280BD05A462B
:102E70000B999047641C6D1C20780028F5D10DB08B
:102E80002846BDE8F08F0027B8460122474900E0F8
:102E9000074314F8013F203B02FA03F00842F7D140
:102EA00020782E2819D114F8010F47F004072A289A
:102EB0000ED06FF02F022078A0F1300109290CD834
:102EC00008EB880102EB410100EB0108641CF2E70A
:102ED0000A98641C50F8048B0A9020780028CED001
:102EE000642808D0692806D075281ED05A460B9948
:102EF00090476D1C58E00A994FF00A0901C90A91E0
:102F0000002802DA40422D2102E0390504D52B21A8
:102F10008DF82010012103E0F90704D02021F7E704
:102F20008A4608AE0DE00021FAE70A994FF00A0937
:102F300001C90A91F7E74946FDF77CF9303106F8F7
:102F4000011D0028F7D1ADEB060000F1200978073C
:102F500001D44FF00108C84502DDA8EB090000E0EC
:102F600000208046002706E008A85A46C05D0B995D
:102F700090476D1C7F1C5745F6DB04E030205A4615
:102F80000B9990476D1CB8F10001A8F10108F5DC20
:102F900005E016F8010B5A460B9990476D1CB9F1E4
:102FA0000001A9F10109F4DC641C65E709280100AE
:102FB0000A68531C0B601070704700002DE9F05F29
:102FC000DFF828A101215046FDF764FA484D494C2D
:102FD000DFF824B1012605F109074FF000084FF092
:102FE0008049D8B901215046FDF754FA0028F9D09C
:102FF0002878012810D07E70012204212046FDF798
:103000004EFA00224FF480715846FDF748FA00222C
:1030100004212046FDF743FAC9F8248002215046D6
:10302000FDF738FAD8B902215046FDF733FA0028E7
:10303000F9D02878022810D0BE7001220421204641
:10304000FDF72DFA00224FF400715846FDF727FADC
:10305000002204212046FDF722FAC9F82480042129
:103060005046FDF717FAD8B904215046FDF712FA79
:103070000028F9D02878032810D0FE7001220421FE
:103080002046FDF70CFA00224FF480615846FDF708
:1030900006FA002204212046FDF701FAC9F824802F
:1030A0004FF0904A01215046FDF7F4F900281BD15A
:1030B00001215046FDF7EEF90028F9D028780428C0
:1030C00010D03E71012204212046FDF7E8F90022CC
:1030D0004FF400615846FDF7E2F900220421204632
:1030E000FDF7DDF9C9F82480BDE8F09F0004004831
:1030F00006000020000C004800080048FDF7E2F937
:10310000FFF7DFFBFFF744F8FFF7CAF8FFF744F9D2
:10311000FFF7BCF9FFF796F9FFF70AF9FEF732FF60
:103120000020FEF789FF4FF6FF70FEF799FFBAA166
:103130000020FEF7E5FEBEA11820FEF7E1FEC24D1D
:10314000C2A1C8482A78FFF755FEC6494820FEF7B5
:10315000D7FEB1A13020FEF7D3FEAFA16020FEF76D
:10316000CFFEADA17820FEF7CBFEABA19020FEF7FD
:10317000C7FEA9A1A820FEF7C3FEA7A1C020FEF7A5
:10318000BFFEDFF8E4924FF47F41C9F80010DFF88A
:10319000DC820122042144464046FDF780F90022EA
:1031A00004212046FDF77BF9B148FEF78BF9B148C1
:1031B000FEF752F9B048FEF785F9DFF8C0A205F135
:1031C00009064FF0630B287908B12C788AE0FFF7E5
:1031D000F5FEF8E70027EF70305D00287ED0002272
:1031E00020214FF09040FDF75AF940F21F30CAF805
:1031F0000000A249091DC1F800B0A04932200C31DD
:10320000086000219B48FEF719FC4FF47A60FDF737
:103210004BF800219748FEF78FFC012210214FF058
:103220009040FDF73CF940F28F10CAF80000934936
:10323000091DC1F800B091485021103001600421EF
:103240008C48FEF7FBFB8E48FEF73CF941F27070AC
:10325000FDF72AF837550122042147464046FDF77D
:103260001EF9022C04D0032C05D0042C40D008E019
:103270000122510201E0012291027B481838FDF73A
:103280000EF97F48FEF75AF94FF47040C9F8000074
:10329000002204213846FDF702F92C7004217548FC
:1032A000FEF74AFC012220214FF09040FDF7F7F88D
:1032B00040F21F30CAF800007049091DC1F800B083
:1032C0006E483C210C30016000216A48FEF7B6FBD5
:1032D0004FF47A60FCF7E8FF002100E002E0654867
:1032E000FEF72AFC641C042C7FF774AF2C7889E06D
:1032F0000122D102C1E70120E870305D00287DD0B5
:10330000002220214FF09040FDF7C9F840F21F3015
:10331000CAF8000059485F46001DC0F800B0574980
:1033200032200C31086000215248FEF787FB4FF431
:103330007A60FCF7B9FF00214E48FEF7FDFB002242
:1033400010214FF09040FDF7AAF840F28F10CAF814
:1033500000004A48001D076048483C2710300760BD
:1033600004214448FEF76AFB4548FEF7ABF841F2FA
:103370007070FCF799FF002030550122042140466F
:10338000FDF78DF8022C04D0032C05D0012C40D081
:1033900008E00122510201E001229102324818386E
:1033A000FDF77DF83648FEF7C9F84FF47040C9F8CC
:1033B0000000002204214046FDF771F82C70042122
:1033C0002C48FEF7B9FB012220214FF09040FDF779
:1033D00066F840F21F30CAF800002849091DC1F8FC
:1033E00000B026480C30076000212248FEF726FB7B
:1033F0004FF47A60FCF758FF002100E002E01D481E
:10340000FEF79AFB641E012CBFF675AF00202871F1
:10341000D9E601221102C1E720202020202020200F
:10342000202020202020202020202020000000001C
:103430002020202020204E6F7720466C61742020B1
:103440002020202000000000060000202020202056
:103450002020202020202564202020202020202023
:10346000200000003800002018080048000C004828
:1034700070010020D80000208C00002028040040AB
:1034800024010020000000000000000000000000F7
:10349000000000000000000000000000000000002C
:1034A000000000000000000000000000000000001C
:1034B0000000000000008001800180018001800187
:1034C00080018001800180018001800180018001F4
:1034D00000000000800180010000000000000000EA
:1034E0000000000000000000CC00CC00CC00CC00AC
:1034F000CC00CC0000000000000000000000000034
:1035000000000000000000000000000000000000BB
:1035100000000000000000000000000000000000AB
:10352000600C600C600C30063006FE1FFE1F30067B
:1035300038071803FE1FFE1F180318038C018C01A7
:103540008C01000000008000E003F80F9C0E8C1C32
:103550008C188C009800F801E007800E801C8C18F5
:103560008C189C18B80CF00FE0038000800000005D
:10357000000000000000000000000E181B0C110CE1
:1035800011061106110311039B018E01C038C06C96
:1035900060446044304430441844186C0C380000D7
:1035A000000000000000E001F003380718061806CC
:1035B0003003F001F000F8009C310E33061E061CAB
:1035C000061C063FFC73F021000000000000000014
:1035D00000000000000000000C000C000C000C00BB
:1035E0000C000C00000000000000000000000000C3
:1035F00000000000000000000000000000000000CB
:10360000000000000000000200038001C000C000B4
:1036100060006000300030003000300030003000CA
:103620003000300060006000C000C0008001000376
:1036300000020000000020006000C0008001800146
:103640000003000300060006000600060006000650
:10365000000600060003000380018001C000600036
:10366000200000000000000000000000000000003A
:10367000C000C000D806F807E0013003380700009A
:10368000000000000000000000000000000000003A
:10369000000000000000000000000000000000002A
:1036A00080018001800180018001FC3FFC3F80019E
:1036B0008001800180018001000000000000000006
:1036C00000000000000000000000000000000000FA
:1036D00000000000000000000000000000000000EA
:1036E0000000000000008001800100010001800056
:1036F00000000000000000000000000000000000CA
:10370000000000000000000000000000E007E007EB
:1037100000000000000000000000000000000000A9
:103720000000000000000000000000000000000099
:103730000000000000000000000000000000000089
:10374000000000000000C000C000000000000000F9
:10375000000000000000000C000C0006000600063F
:103760000003000300038003800180018001C0008A
:10377000C000C00060006000000000000000000009
:10378000000000000000E003F007380E180C0C18D1
:103790000C180C180C180C180C180C180C180C1809
:1037A000180C380EF007E0030000000000000000D5
:1037B00000000000000000018001C001F00198013C
:1037C00088018001800180018001800180018001E9
:1037D00080018001800180010000000000000000E5
:1037E000000000000000E003F80F180C0C180C1883
:1037F00000180018000C000600038001C0006000E3
:1038000030001800FC1FFC1F00000000000000003A
:10381000000000000000E001F807180E0C0C0C0C72
:10382000000C0006C003C007000C001800180C189C
:103830000C18180CF807E00300000000000000005E
:10384000000000000000000C000E000F000F800DB3
:10385000C00C600C600C300C180C0C0CFC3FFC3FD6
:10386000000C000C000C000C000000000000000028
:10387000000000000000F80FF80F180018000C00FE
:10388000EC03FC071C0E001C0018001800180C1894
:103890001C0C180EF807E0030000000000000000F8
:1038A000000000000000C007F00F381C18181800B6
:1038B0000C00CC03EC0F3C0E1C1C0C180C180C1844
:1038C000181C380EF007E0030000000000000000A4
:1038D000000000000000FC1FFC1F000C000600069A
:1038E000000380038001C001C000E00060006000B0
:1038F00070003000300030000000000000000000C8
:10390000000000000000E003F007380E180C180C4F
:10391000180C3806F007F007180C0C180C180C18C7
:103920000C18380CF80FE003000000000000000045
:10393000000000000000E003F007380E1C0C0C181B
:103940000C180C181C1C381EF81BE0190018000C71
:10395000000C1C0EF807F001000000000000000041
:103960000000000000000000000000000000000057
:103970008001800100000000000000000000000045
:103980000000000080018001000000000000000035
:103990000000000000000000000000000000000027
:1039A0008001800100000000000000000000000015
:1039B0000000000080018001000100018000000083
:1039C00000000000000000000000000000000000F7
:1039D000000000000010001C800FE003F800180039
:1039E000F800E003800F001C001000000000000041
:1039F00000000000000000000000000000000000C7
:103A000000000000F81F000000000000F81F000088
:103A100000000000000000000000000000000000A6
:103A20000000000000000000000000000000000096
:103A30000000000008003800F001C007001F001857
:103A4000001FC007F001380008000000000000005F
:103A5000000000000000E003F80F180C0C180C1810
:103A60000018000C000600038001C000C000C00068
:103A700000000000C000C0000000000000000000C6
:103A80000000000000000000E00718180420C22910
:103A9000224A114409440944094409221113E20C41
:103AA000024004201818E007000000000000000099
:103AB00000000000000080038003C006C006C006AE
:103AC000600C600C301830183018F83FF83F1C704C
:103AD0000C600C6006C006C0000000000000000082
:103AE000000000000000FC03FC0F0C0C0C180C186C
:103AF0000C180C0CFC07FC0F0C180C300C300C30A4
:103B00000C300C18FC1FFC07000000000000000037
:103B1000000000000000C007F01F38381C300C7097
:103B200006600600060006000600060006000660A5
:103B30000C701C30F01FE0070000000000000000C7
:103B4000000000000000FE03FE0F060E0618061817
:103B500006300630063006300630063006300618CD
:103B60000618060EFE0FFE03000000000000000015
:103B7000000000000000FC3FFC3F0C000C000C00AB
:103B80000C000C00FC1FFC1F0C000C000C000C00B7
:103B90000C000C00FC3FFC3F000000000000000097
:103BA000000000000000F83FF83F1800180018005F
:103BB00018001800F81FF81F180018001800180047
:103BC0001800180018001800000000000000000095
:103BD000000000000000E00FF83F3C780E6006E0B7
:103BE00007C00300030003FE03FE03C007C006C0B6
:103BF0000EC03CF0F83FE00F0000000000000000A5
:103C00000000000000000C300C300C300C300C3088
:103C10000C300C30FC3FFC3F0C300C300C300C30C6
:103C20000C300C300C300C300000000000000000A4
:103C300000000000000080018001800180018001FF
:103C4000800180018001800180018001800180016C
:103C50008001800180018001000000000000000060
:103C60000000000000000006000600060006000636
:103C700000060006000600060006000600061806FC
:103C800018063807F003E001000000000000000003
:103C900000000000000006300618060C06060603A9
:103CA0008601C60066007600DE008E010603060669
:103CB000060C061806300660000000000000000038
:103CC000000000000000180018001800180018007C
:103CD0001800180018001800180018001800180024
:103CE00018001800F81FF81F000000000000000076
:103CF0000000000000000EE01EF01EF01EF036D89E
:103D000036D836D836D866CC66CC66CCC6C6C6C6DB
:103D1000C6C6C6C686C386C30000000000000000F9
:103D20000000000000000C301C303C303C306C3097
:103D30006C30CC30CC308C310C330C330C360C3630
:103D40000C3C0C3C0C380C30000000000000000063
:103D5000000000000000E007F81F1C380E7006602D
:103D600003C003C003C003C003C003C003C0066098
:103D70000E701C38F81FE007000000000000000073
:103D8000000000000000FC0FFC1F0C380C300C3051
:103D90000C300C300C18FC1FFC070C000C000C0045
:103DA0000C000C000C000C000000000000000000E3
:103DB000000000000000E007F81F1C380E700660CD
:103DC00003E003C003C003C003C003C007E00663F1
:103DD0000E3F1C3CF83FE0F700C000000000000070
:103DE000000000000000FE0FFE1F063806300630FF
:103DF00006300638FE1FFE0706030606060C0618E8
:103E000006180630063006600000000000000000C2
:103E1000000000000000E003F80F1C0C0C180C1848
:103E20000C001C00F803E00F001E003806300630BE
:103E30000E301C1CF80FE00700000000000000001E
:103E4000000000000000FE7FFE7F800180018001F5
:103E5000800180018001800180018001800180015A
:103E6000800180018001800100000000000000004E
:103E70000000000000000C300C300C300C300C3016
:103E80000C300C300C300C300C300C300C300C3052
:103E90000C301818F81FE0070000000000000000B8
:103EA00000000000000003600630063006300C18E9
:103EB0000C180C18180C180C380E30063006700749
:103EC00060036003C001C0010000000000000000AA
:103ED0000000000000000360C361C361C36166337A
:103EE000663366336633663366336C1B6C1B6C1B40
:103EF0002C1A3C1E380E380E000000000000000096
:103F00000000000000000FE00C7018303018700C3A
:103F1000600EC00780038003C003E006700C301CF5
:103F200018180C300E6007E00000000000000000D0
:103F300000000000000003C006600C301C38381878
:103F4000300C6006E007C003800180018001800121
:103F5000800180018001800100000000000000005D
:103F6000000000000000FC7FFC7F006000300018B3
:103F7000000C000600038001C00060003000180043
:103F80000C000600FE7FFE7F000000000000000025
:103F9000000000000000E003E0036000600060003B
:103FA0006000600060006000600060006000600011
:103FB0006000600060006000600060006000E0037E
:103FC000E00300000000300030006000600060008E
:103FD000C000C000C000C00180018001800100035A
:103FE00000030003000600060000000000000000BF
:103FF000000000000000E003E003000300030003F2
:104000000003000300030003000300030003000398
:104010000003000300030003000300030003E003A8
:10402000E003000000000000C001C0016003600365
:10403000600330063006180C180C00000000000069
:104040000000000000000000000000000000000070
:104050000000000000000000000000000000000060
:104060000000000000000000000000000000000050
:10407000000000000000FFFFFFFF00000000000044
:104080000000000000000C000C000C000C000C00F4
:104090000C00000000000000000000000000000014
:1040A0000000000000000000000000000000000010
:1040B0000000000000000000000000000000000000
:1040C000F003F8071C0C0C0C000FF00FF80C0C0C94
:1040D0000C0C1C0FF80FF01800000000000000008E
:1040E0000000000000001800180018001800180058
:1040F000D803F80F380C18181818181818181818AA
:104100001818380CF80FD803000000000000000059
:10411000000000000000000000000000000000009F
:10412000C003F007300E180C180018001800180013
:10413000180C300EF007C003000000000000000063
:1041400000000000000000180018001800180018F7
:10415000C01BF01F301C1818181818181818181839
:104160001818301CF01FC01B0000000000000000E9
:10417000000000000000000000000000000000003F
:10418000C003F00F300C1818F81FF81F18001800A3
:104190003818301CF00FC0070000000000000000BD
:1041A000000000000000800FC00FC000C000C00071
:1041B000F007F007C000C000C000C000C000C00091
:1041C000C000C000C000C0000000000000000000EF
:1041D00000000000000000000000000000000000DF
:1041E000E00DF80F180E0C0C0C0C0C0C0C0C0C0C3D
:1041F0000C0C180EF80FE00D000C0C0C1C06F80748
:10420000F001000000001800180018001800180045
:10421000D807F80F381C1818181818181818181874
:1042200018181818181818180000000000000000CE
:10423000000000000000C000C000000000000000FE
:10424000C000C000C000C000C000C000C000C0006E
:10425000C000C000C000C00000000000000000005E
:10426000000000000000C000C000000000000000CE
:10427000C000C000C000C000C000C000C000C0003E
:10428000C000C000C000C000C000C000C000F800F6
:104290007800000000000C000C000C000C000C006A
:1042A0000C0C0C060C038C01CC006C00FC009C0177
:1042B0008C030C030C060C0C000000000000000036
:1042C000000000000000C000C000C000C000C0002E
:1042D000C000C000C000C000C000C000C000C000DE
:1042E000C000C000C000C0000000000000000000CE
:1042F00000000000000000000000000000000000BE
:104300007C3CFF7EC7E383C183C183C183C183C17A
:1043100083C183C183C183C100000000000000008D
:10432000000000000000000000000000000000008D
:104330009807F80F381C1818181818181818181893
:1043400018181818181818180000000000000000AD
:10435000000000000000000000000000000000005D
:10436000C003F00F300C181818181818181818185F
:104370001818300CF00FC00300000000000000000F
:10438000000000000000000000000000000000002D
:10439000D803F80F380C1818181818181818181807
:1043A0001818380CF80FD803180018001800180057
:1043B00018000000000000000000000000000000E5
:1043C000C01BF01F301C18181818181818181818C7
:1043D0001818301CF01FC01B001800180018001817
:1043E00000180000000000000000000000000000B5
:1043F000B007F003700030003000300030003000B3
:1044000030003000300030000000000000000000EC
:10441000000000000000000000000000000000009C
:10442000E003F003380E180C3800F003C007000C4E
:10443000180C380EF007E003000000000000000038
:1044400000000000000000008000C000C000C000AC
:10445000F007F007C000C000C000C000C000C000EE
:10446000C000C000C007800700000000000000007E
:10447000000000000000000000000000000000003C
:1044800018181818181818181818181818181818AC
:104490001818381CF01FE019000000000000000090
:1044A000000000000000000000000000000000000C
:1044B0000C18180C180C180C300630063006600367
:1044C00060036003C001C0010000000000000000A4
:1044D00000000000000000000000000000000000DC
:1044E000C141C141C361636363636363363636367A
:1044F00036361C1C1C1C1C1C0000000000000000A8
:1045000000000000000000000000000000000000AB
:104510001C38381C300C60066003600360036003C5
:104520006006300C381C1C38000000000000000041
:10453000000000000000000000000000000000007B
:104540001830301830187018600C600CE00CC00681
:10455000C00680038003800380018001C001F00059
:1045600070000000000000000000000000000000DB
:10457000FC1FFC1F000C000600038001C00060004F
:1045800030001800FC1FFC1F0000000000000000AD
:1045900000000000000000038001C000C000C00057
:1045A000C000C000C000600060003000600040003B
:1045B000C000C000C000C000C000C00080010003F7
:1045C0000000000000008001800180018001800166
:1045D00080018001800180018001800180018001D3
:1045E00080018001800180018001800180018001C3
:1045F0008001000000006000C000C0018001800157
:104600008001800180010003000300060003000117
:10461000800180018001800180018001C000600074
:10462000000000000000000000000000000000008A
:1046300000000000F010F81F080F0000000000004C
:10464000000000000000000000000000000000006A
:104650000000000000000000000000000102030450
:104660000607080984460008000000202400000016
:104670003C2E0008A8460008240000209C050000ED
:104680004C2E00080000FFFF0000010105010000A2
:104690000000000000000000100000000100000009
:0846A000000000000024F400FA
:04000005080001D915
:00000001FF
